:020000040800F2
:1000000080250020A1020008CF2A00085D280008F2
:10001000CD2A000823060008F94A00080000000065
:100020000000000000000000000000004D2C00084F
:1000300099080008000000004B2C0008592C00080B
:10004000BB020008BB020008BB020008BB0200089C
:10005000BB020008BB020008BB020008BB0200088C
:10006000BB020008BB020008BB020008BB0200087C
:10007000BB020008BB020008BB020008BB0200086C
:10008000BB020008BB020008BB020008BB0200085C
:1000900025060008BB020008BB020008BB020008DE
:1000A000BB020008BB020008BB020008BB0200083C
:1000B000BB020008BB020008BB020008BB0200082C
:1000C000BB020008BB020008BB020008BB0200081C
:1000D000BB020008BB020008BB020008BB0200080C
:1000E000BB020008BB020008BB020008BB020008FC
:1000F000BB020008BB020008BB020008BB020008EC
:10010000BB020008BB020008BB020008BB020008DB
:10011000BB020008BB020008BB020008BB020008CB
:10012000BB020008BB020008BB020008BB020008BB
:10013000BB020008BB020008BB020008BB020008AB
:10014000BB020008BB020008BB020008D12A00085D
:10015000BB020008BB020008BB020008BB0200088B
:10016000BB020008BB020008BB020008BB0200087B
:10017000BB020008BB020008BB0200080000000030
:10018000BB020008BB02000800F002F800F05EF8B5
:100190000AA090E8000C82448344AAF10107DA45E2
:1001A00001D100F053F8AFF2090EBAE80F0013F0D6
:1001B000010F18BFFB1A43F0010318473C6400000D
:1001C0005C6400000A444FF0000C10F8013B13F08F
:1001D000070408BF10F8014B1D1108BF10F8015BA0
:1001E000641E05D010F8016B641E01F8016BF9D193
:1001F00013F0080F1EBF10F8014BAD1C0C1B09D1EA
:100200006D1E58BF01F801CBFAD505E014F8016B5B
:1002100001F8016B6D1EF9D59142D6D370470000ED
:100220000023002400250026103A28BF78C1FBD8FF
:10023000520728BF30C148BF0B6070471FB506F09A
:100240004EF900F0DAF81FBD10B510BD00F0B4F99A
:100250001146FFF7F3FF05F0A7F900F0D2F903B458
:10026000FFF7F2FF03BC00F0D5F900000B49D1F80D
:1002700000C04A685CF8043B1068184442F8040B5C
:100280008C4528BFA1F1DC0C8A4228BFA1F1DC0219
:10029000C1F800C04A6020F000407047181F0020DD
:1002A0000948804709480047FEE7FEE7FEE7FEE70A
:1002B000FEE7FEE7FEE7FEE7FEE7FEE70448054946
:1002C000054A064B70470000F12C00088901000820
:1002D000801F002080250020802100208021002018
:1002E00053EA020C00F069802DE9F04B4FF0000654
:1002F000002B1FBFB3FA83F503FA05F424FA05F6C1
:100300005E4012BF1643B2FA82F502FA05F4C5F157
:1003100020051EBF22FA05FC44EA0C04203556EAEB
:10032000044C4FEA144418BF641C4FF000084FF00F
:100330000009904271EB030C39D3002919BFB1FABF
:1003400081F701FA07F6B0FA80F700FA07F6C7F16D
:1003500020071EBF20FA07FC46EA0C062037B6FB32
:10036000F4FCA7EB0507103F07F01F0BCBF12006AD
:100370000CFA0BFB2CFA06F644BFB3460026202FDE
:10038000A4BF5E464FF0000B5BEA060C08BF4FF0BF
:10039000010B19EB0B09ABFB027C48EB0608C01BF9
:1003A00006FB02CC0BFB03CC71EB0C01C1E70B4647
:1003B000024641464846BDE8F08B13B54FF00000B9
:1003C0004FF00001AFF30080BDE81C407047000013
:1003D0000B4910B5A1F17C020A4CC2E93712372152
:1003E00006E000EB104342F82130074B00FB0340CE
:1003F0000B1EA1F10101F4DC10BD0120E8E70000B3
:10040000B81E0020E119D666CD0D0100032A40F286
:10041000308010F0030C00F0158011F8013BBCF1A6
:10042000020F624498BF11F801CB00F8013B38BFBE
:1004300011F8013BA2F1040298BF00F801CB38BFCC
:1004400000F8013B11F0030300F07C80083AC0F093
:10045000088051F8043B083A51F804CBA0E8081092
:10046000F5E7121D5CBF51F8043B40F8043BAFF3C5
:100470000080D20724BF11F8013B11F801CB48BF1F
:1004800011F8012B24BF00F8013B00F801CB48BF55
:1004900000F8012B70474FF000020429C0F01280D1
:1004A00010F0030C00F01B80CCF1040CBCF1020F27
:1004B00018BF00F8012BA8BF20F8022BA1EB0C01FC
:1004C00000F00DB85FEAC17C24BF00F8012B00F8F2
:1004D000012B48BF00F8012B70474FF0000200B518
:1004E000134694469646203922BFA0E80C50A0E857
:1004F0000C50B1F12001BFF4F7AF090728BFA0E805
:100500000C5048BF0CC05DF804EB890028BF40F8D0
:10051000042B08BF704748BF20F8022B11F0804F12
:1005200018BF00F8012B704770477047704710B52F
:1005300000F03AF8006810BD10B5044600F034F839
:10054000046010BD10B5203AC0F00B80B1E818501F
:10055000203AA0E81850B1E81850A0E81850BFF4AD
:10056000F5AF5FEA027C24BFB1E81850A0E818504C
:1005700044BF18C918C0BDE810405FEA827C24BFA0
:1005800051F8043B40F8043B08BF7047D20728BF2E
:1005900031F8023B48BF11F8012B28BF20F8023B7D
:1005A00048BF00F8012B704700487047201F00200B
:1005B00000487047201F00207546FFF7F9FFAE4640
:1005C00005006946534620F00700854618B020B55F
:1005D000FFF774FEBDE820404FF000064FF0000723
:1005E0004FF000084FF0000B21F00701AC46ACE8DB
:1005F000C009ACE8C009ACE8C009ACE8C0098D4648
:10060000704710B50446AFF300802046BDE81040A7
:10061000FFF725BE01491820ABBEFEE72600020009
:100620007047FEE7014800F0CCBA0000EC01002062
:10063000002070470020704710B50022044905488B
:1006400002F0AEFE0449034802F09DFE002010BDFA
:100650003C1600205C0200203C0E0020F0B50C4649
:100660002DED068B0746014683B0574802F08BFEFE
:10067000554802F061FE2678544C0025324625602C
:1006800065602581A57239462046FFF7BFFE3146D9
:100690003846FFF700FF4E48007800287DD02078CC
:1006A00055287AD1607AFF2877D14A4E30780028D1
:1006B00073D000206A4601AB21184F78175449794E
:1006C0001954401C40B20428F6DBDDED000A9DED14
:1006D000010A9FED411A30EEC18ADFED400A70EE4B
:1006E000208A28EE080A08EEA80A10EE100A05F083
:1006F00085FE41EC100B04F043FE51EC100B05F0AD
:1007000043F909EE100A18EE100A05F077FE41ECE5
:100710001A0B18EE900A05F071FE41EC100BB0EECA
:100720004A1AF0EE6A1A04F02BFD9FED2D1B51ECD6
:10073000100B53EC112B05F0A1FB9FED2B1B53EC81
:10074000112B05F007FA05F01FF900EE100AB5EEBF
:10075000C00AF1EE10FA03D2DFED250A30EE200ACE
:10076000244A9FED251A10EE100ADFED240A2449D1
:10077000904202DC40EE410A05E0DFED221A30EE45
:10078000610A40EE010ABDEEE00A10EE100A88EEA2
:10079000090A088010EE100A00E00FE005F02EFEB6
:1007A00041EC100B04F0D4F99FED170A174829EE1D
:1007B000000ABDEEC00A80ED000A357003B00020CB
:1007C000BDEC068BF0BD00005C020020DE010020C5
:1007D000000000200300002060E5503D5839343C03
:1007E000000000000080664038E92F54FB210940DA
:1007F0000000B443000087438805B641D5B9B94528
:100800000600002000008743405585481000002066
:1008100000207047094A10B5D2F8BC22D2F8142241
:100820000AB1012010BD0A460146044802F0B8FD95
:10083000BDE81040014802F02DBE00005C0200201F
:1008400070B50C46054611481149621E4089086082
:1008500000208860C1E903040C4829462030FFF7D6
:10086000D5FD601EC1B2284604F082FE0749074B41
:1008700020312144183301F8010CBDE8704003F128
:1008800008020349034800F033B8000000000020CC
:10089000A0010020EC010020704772B6FEE70000C6
:1008A000094A40F2FF1151810749020A20310A70BA
:1008B00048708A70C8700A7148718A71C87102489C
:1008C00008212030FFF7BCBF0000002090F8202056
:1008D000012A07D0022A05D0416A41F480214162F1
:1008E00001207047006842690A4342610020704756
:1008F000F0B590F820500468A468012D05D0022DB1
:1009000003D0416A41F4802157E014F0406F01D1D7
:10091000E5004FD5C4F301640125A5401D608D6835
:100920004FF4C0739DB1CE6835434E6845EAC605A5
:10093000066803EB0417F5514FF4C275076805EB21
:1009400004150E697E51097D012905D009E00E8844
:10095000CD6845EA4655EBE701684E5946F4807686
:100960004E511179D579567941EA056195792D0471
:1009700045EA062529434FF4C676056806EB0416BA
:10098000A9511178D57841EA0561957852782D04FE
:1009900045EA022211434FF4C475026805EB0415C1
:1009A0005151006803EB0411425842F001024250D9
:1009B0000020F0BD416A41F4001141620120F0BD08
:1009C00010B590F82020012A07D0022A05D0416AEC
:1009D00041F480214162012010BD3B48D0F8002243
:1009E00042F00102C0F80022D0F8002222F47C522A
:1009F000C0F80022D0F800224B6A42EA0322C0F875
:100A000000220A7D02F01F0301229A40D0F81C3216
:100A10009343C0F81C32CB69B3B9D0F80C3293437E
:100A2000C0F80C328C894B6864F31F434C6900EBAF
:100A3000C404C4F840320C890B6864F31F434C694A
:100A400000EBC404C4F84432CB69012B16D1D0F8B2
:100A50000C321343C0F80C320C884B6864F31F430C
:100A60004C6900EBC404C4F840320C89CB6864F3D1
:100A70001F434C6900EBC404C4F844328B69002B5B
:100A8000D0F804320ED01343C0F804320B69002BA7
:100A9000D0F8143208D01343C0F81432096A01297F
:100AA00004D008E09343EFE79343F5E7D0F81C1236
:100AB0001143C0F81C12D0F8001221F00101C0F857
:100AC0000012002010BD000000640040704770B5A7
:100AD00090F82040012C05D0022C03D0416A41F44B
:100AE000802128E0046809B32469A40720D04FF4CA
:100AF000D874056804EB01142D5915F004059560B0
:100B000005682D591AD0ED08556005682C5904F078
:100B10000204D4604FF4DA74056804EB01142E5912
:100B200006F00F06082E0CD308250DE0E468DCE77C
:100B3000416A41F400114162012070BD6D0D1560E4
:100B4000E3E72D5905F00F05156105682D59C5F32B
:100B50000725956105682C59240C54614FF4DC720B
:100B6000046802EB0112A4581C700468A458240AFB
:100B70005C700468A458240C9C700468A258120E7F
:100B8000DA704FF4DE72046802EB0112A4581C7193
:100B90000468A458240A5C710468A458240C9C714D
:100BA0000468A258120EDA71006829B1016941F097
:100BB00020010161002070BDC16841F02001C160C9
:100BC000F8E72DE9F05F0546006800244669D0F893
:100BD00004908768D0F80CB0D0F810A0D0F8188036
:100BE000F10748D0F90714D001218160B80703D577
:100BF000284600F024FA0CE0780702D54FF4006490
:100C000007E0380702D54FF4805402E0284600F090
:100C100015FAF80516D529684FF480708860B80574
:100C200003D5284600F00DFA0CE0780502D544F40F
:100C3000005407E0380502D544F4804402E0284619
:100C400000F0FEF9F80316D529684FF4803088606B
:100C5000B80303D5284600F0F6F90CE0780302D576
:100C600044F4004407E0380302D544F4803402E041
:100C7000284600F0E7F9300707D55FEACB6004D5D6
:100C80002968102044F40074C86070074FF008070A
:100C900007D55FEA0B7004D52868C760284600F0C6
:100CA00057F9B00706D52868C068800702D02846E3
:100CB00000F050F9700607D55FEACA6004D52968CC
:100CC000102044F480640861B00607D55FEA0A701A
:100CD00004D528680761284600F080F9F00606D59B
:100CE00028680069800702D0284600F078F9B00330
:100CF00008D55FEAC96005D52968102048602846F4
:100D000000F06EF9F00307D55FEA097004D5286892
:100D10004760284600F098F9300446D55FEA4970EC
:100D200040D5F00504D55FEAC87001D044F0010455
:100D3000B00504D55FEA887001D544F0020470055F
:100D400004D55FEA487001D544F00404300529D584
:100D500018F0700F26D008F07000402815D006DC7F
:100D6000102809D020280AD0302816D10AE05028AF
:100D70000ED0602811D10EE044F008040DE044F0DC
:100D800010040AE044F0200407E044F0400404E0CA
:100D900044F0800401E044F480742868816921F003
:100DA00070018161296804204860002C05D0686AC0
:100DB000204368622846FFF789FEBDE8F09F70B5C2
:100DC000040003D094F8200010B104E0012070BDAD
:100DD000204600F081F82068016841F001010160BF
:100DE00000F044FA0546052604E000F03FFA401BF7
:100DF0000A2811D820684068C007F6D0206801682A
:100E000021F00201016000F031FA05460BE000F02C
:100E10002DFA401B0A2806D9606A40F4003060624F
:100E200084F82060D2E7206840688007EFD4207EF5
:100E30000128206801683DD021F080010160607EBA
:100E400001282068016838D021F040010160A07EAF
:100E500001282068016833D021F020010160E07E84
:100E60000128206801682ED041F010010160207F28
:100E700001282068016829D021F008010160607F05
:100E800001282068016824D021F004010160D4E920
:100E900002010843D4E90412114308436168491E62
:100EA00008432168C86100206062012084F82000A6
:100EB000002070BD41F08001C0E741F04001C5E76E
:100EC00041F02001CAE721F01001CFE741F008010D
:100ED000D4E741F00401D9E710B586B004461421E7
:100EE0006846FFF7FAFA17492068884227D1164862
:100EF0000021026842F000720260006800F0007099
:100F0000059011481038026842F00802026000683B
:100F1000022200F0080005900320CDE90210CDE97F
:100F20000002092004906946084800F0A1F8002258
:100F30001146142000F008FA142000F0F7F906B06A
:100F400010BD00000064004040380240000C024028
:100F50007047000010B5044600681D49884235D12D
:100F60001C4B1D4A00212046FFF7B1FD00282DD162
:100F70001848194A01881C3249BA1180418849BA77
:100F80005180818849BA91801249807990712839BD
:100F90001388CB810889181A00B2B0F5805F02DB94
:100FA0000879401E04E010F5805F02DC0879401CDF
:100FB000087191F90400C0EB4030184410800B8197
:100FC0002046BDE810400221FFF780BC10BD0000A4
:100FD0000064004028000020B801002070477047DE
:100FE0007047000070B5044690F82000012804D036
:100FF000606A40F40020606218E0022084F820005B
:101000002068016821F00101016000F02FF9054618
:101010000EE000BF00F02AF9401B0A2808D9606AD8
:1010200040F400306062052084F82000012070BD8B
:1010300020684068C007EDD1606270BD704770479E
:1010400070477047704770477047000070B504469E
:1010500000F00CF90546601C02D0044800780444F6
:1010600000F004F9401BA042FAD370BD94000020A8
:101070002DE9F84FDFF8BCA10022012503264FF02F
:101080000F090AF1040BAAF1040E00BF0B6805FA60
:1010900002F42340A34270D10F7907F00307012F18
:1010A00001D0022F16D187684FEA420806FA08FCE1
:1010B00027EA0C07D1F80CC00CFA08FC4CEA070C24
:1010C000C0F808C04768A7430C79C4F300149440E3
:1010D0003C4344600C79E443A4070AD0C4684FEA57
:1010E000420C06FA0CF7BC438F6807FA0CF727434B
:1010F000C7600C7904F00304022C12D1D40800EB71
:10110000840CDCF820405707FF0E09FA07F824EAA0
:101110000804D1F8108008FA07F848EA0408CCF867
:10112000208004684FEA420C06FA0CF7BC430F79A2
:1011300007F0030707FA0CF7274307604C6814F41D
:10114000403F70D03C4C276847F4804727602468B4
:1011500022F0030704F480440094384C07EB040C9D
:10116000DCF8084897074FEA177809FA08F7BC43F4
:10117000334FB84202D1002724E054E0314FB84247
:1011800001D101271EE0304FB84201D1022719E0FA
:101190002E4FB84201D1032714E02D4FB84201D1A0
:1011A00004270FE02B4FB84201D105270AE02A4F50
:1011B000B84201D1062705E0284FB84201D10727E0
:1011C00000E0082707FA08F72743CCF80878DAF890
:1011D00000405746D1F804C09C435FEACC2C00D5B0
:1011E0001C433C60DBF800405F46D1F804C09C43E0
:1011F0005FEA8C2C00D51C433C60DEF8004077464B
:10120000D1F804C09C435FEA8C3C00D51C433C6091
:10121000084F083F3C68D1F804C09C435FEACC3CCF
:1012200000D51C433C60521C102AFFF42FAFBDE8D0
:10123000F88F0000083C0140443802400030014073
:10124000000002400004024000080240000C02407E
:10125000001002400014024000180240001C02402E
:101260000069084000D001207047000001488068F4
:101270007047000094000020024881680278114401
:1012800081607047940000200B4810B5016841F45C
:1012900000710160016841F480610160016841F4FE
:1012A00080710160032000F06FF8002000F006F864
:1012B00000F024F8002010BD003C024070B50D4D38
:1012C00004464FF47A712878B1FBF0F00A490968B6
:1012D000B1FBF0F001F00EF848B9102C07D2002253
:1012E0002146501E00F030F800206C6070BD0120D7
:1012F00070BD000094000020A00000200A4808B53E
:10130000016841F480410160006800F48040009071
:101310000548001F016841F080510160006800F03D
:101320008050009008BD000044380240002809DBCE
:1013300000F01F02012191404009800000F1E020EF
:10134000C0F8001170470000F0B40E4B1B680C464B
:10135000C3F30223C3F10705042D00D90425191D89
:10136000072901D2002300E0DB1E012606FA05F161
:10137000491E214099409E40761E16403143F0BCE4
:1013800003F0D3BB0CED00E0064900F0070208684B
:101390004FF6FF03184040EA0220034A104308605A
:1013A000704700000CED00E00000FA05704700688F
:1013B000416200207047F0B50368586A39B19C6AF1
:1013C0004FF4827600EB144400204D1E0AE040EA00
:1013D000024098620FE006EB8007DF59401C04EBE7
:1013E0001744C0B2A842F6D344EA02404FF48072D8
:1013F00002EB810158500020F0BDD0F8E00402F06B
:10140000DCBA01EBC10200EB8202D0F8E004126A00
:1014100002F031BA01EBC10200EB8202D0F8E00425
:10142000D2F8602202F082BAD0F8E00402F0C7BA23
:101430000A0601F00F0101EBC10100EB810101D5AA
:10144000143101E001F51571006803F0A3B970B51E
:1014500004460B0601F00F0000EBC00104EB810114
:101460004FF001024FF0000502D54A75143103E038
:1014700081F8555201F51571087094F8940401280B
:1014800008D084F89424206802F09EFE84F89454D6
:10149000002070BD022070BD70B5044601F00F0041
:1014A0002279904201D9012070BD0B0601F00F0195
:1014B00001EBC10104EB81014FF001024FF0000587
:1014C00002D54A75143103E081F8555201F51571C2
:1014D0008D70087094F89404012808D084F894243E
:1014E000206802F0E3FF84F89454002070BD0220CD
:1014F00070BD01F00F0101EBC10100EB8100D0F8DC
:10150000680270472DE9F04104460F0601F00F0014
:1015100000EBC00104EB81014FF001064FF0000524
:1015200002D54E75143103E081F8555201F515715D
:10153000C2F30A0208708A600B714A7802B14883CC
:10154000022B00D14D7194F89404012809D084F83D
:101550009464206802F08AFD284684F89454BDE81B
:10156000F0810220FBE710B501F00F0404EBC40189
:1015700000EB8101C1E998230023C1F8683281F8AA
:10158000553281F85442837901F51571012B00D150
:10159000CA618279006802F0E1FF002010BD70B5D9
:1015A00004460D4601F00F002179884201D901203F
:1015B00070BD29064FF000064FF0010206D500EB82
:1015C000C00104EB81014A75143107E005EBC50148
:1015D00004EB810181F8556201F515718A7008707C
:1015E00094F89404012807D084F89424206802F029
:1015F00089FF280702D007E0022070BDA17904F21C
:101600009C42206802F026FF84F89464002070BD9C
:1016100010B501F00F0404EBC40100EB8101C1E936
:10162000082300238B6201234B7501F8144F837943
:10163000012B00D1CA618279006802F08FFF00207F
:1016400010BD00002DE9FC5F05680446284603F044
:101650003DF900287DD1206803F064F9002878D096
:10166000D5F80808C0F30D20C4F8D404206803F0AE
:1016700059F9800704D52068416901F002014161F0
:10168000206803F04FF9C10604F29C40009034D565
:101690002068816921F0100181612F6A07F00F0035
:1016A00000EBC00004EB8006C7F3434006F5157657
:1016B000022802D0062811D01AE047F6F07007423F
:1016C00016D0C7F30A1217462846F16803F02EF920
:1016D000F0683844F0607069384408E00822284611
:1016E000009903F023F97069C7F30A110844706187
:1016F0002068816941F010018161206803F012F9CE
:1017000000034FF0080B4FF0000A4FF001097CD5A1
:101710000026206803F0E5F8074674E0F80770D06B
:10172000F1B2206803F0F6F88046C00707D005EB59
:101730004611C1F8089B3146204601F0CFF95FEA17
:10174000087024D505EB4611C1F808BB2068016C70
:1017500000E023E200EB46100191D0F8082BFB4B90
:10176000994205D9110403D54FF40041C0F8081B74
:10177000204600F0F6FAF5490198884207D9A07989
:10178000012804D120680121009A02F063FE5FEA7B
:10179000C86004D505EB46111020C1F8080B5FEABC
:1017A00088701DD56869000605D5D5F8040840F491
:1017B0008061C5F8041806EBC60004EB800090F8C1
:1017C000571200F51570012905D180F803A0F1B278
:1017D000204600F0E9F905EB46110220C1F8080B9C
:1017E0005FEA886004D505EB46102021C0F8081B8D
:1017F0005FEA884005D505EB46104FF40051C0F86C
:10180000081B7F08761C002F88D1206803F08AF817
:1018100040036ED5206803F05DF80746002666E0B9
:10182000F80762D0F1B2206803F062F88046C00782
:1018300023D006F00F01D5F8342809FA01F18A43C4
:10184000C5F8342805EB4611C1F80899A07901289C
:101850000FD106EBC60004EB8000D0E9072111444C
:10186000016236B9606A20B920680121009A02F04D
:10187000F1FDF1B22046FFF7C4FD5FEA087003D521
:1018800005EB4611C1F808B95FEAC86004D505EB5D
:1018900046111020C1F808095FEA486004D505EB3D
:1018A00046104021C0F808195FEA887016D5314605
:1018B000284602F0E0FF06EBC60004EB8000C17D85
:1018C0001430012905D180F803A0F1B2204600F0C0
:1018D00067F905EB46110220C1F808095FEA0860C4
:1018E00003D53146204601F05FF97F08761C002FB2
:1018F00096D1206803F016F8002811DAD5F804080C
:1019000020F00101C5F8041894F8CC0401282BD06C
:10191000204600F00BFA2068416901F00041416166
:10192000206802F0FFFF00050BD5D5F80808C007B6
:1019300002D0204600F03EFA2068416901F40061BF
:101940004161206802F0EEFFC00467D5D5F80408B5
:1019500020F00100C5F804081021206802F08BFF78
:1019600000214FF67F3220E084F8CCA400212046ED
:10197000FFF71CFDCFE700BF05EB4110C0F80829B9
:10198000D0F8003923F40013C0F80039C0F8082B50
:10199000D0F8003B23F40013C0F8003BD0F8003B24
:1019A00043F00063C0F8003B491C20798842E3D82B
:1019B000D5F81C0840F00111C5F81C18E07B002880
:1019C00028460DD0D0F8840840F00B01C5F88418E3
:1019D000D5F8440840F00B012846C5F844180DE03E
:1019E000D0F8140842F22B010843C5F81408D5F8C2
:1019F000100840F00B012846C5F81018D0F8000870
:101A000020F4FE61C5F80018A1792068009A02F060
:101A100021FD2068416901F480514161206802F094
:101A200081FF800415D5206802F060FB206802F079
:101A300040FFE07100F070FA0146E279206802F0A0
:101A4000D3FF204600F05CF92068416901F40051A1
:101A50004161206802F066FF000707D5204600F0CC
:101A600069F92068416901F008014161206802F0CC
:101A700059FF000616D5A86920F08001A96101264A
:101A80000DE000BF06EBC60004EB800090F85702A3
:101A9000012803D1F1B22046FFF7CAFC761C207959
:101AA000B042EFD8206802F03DFFC0021FD50126EA
:101AB0004F4614E005EB4610D0F8001906EBC600BF
:101AC00004EB8002107E012808D1002906DAF0B26A
:101AD00040F08001D7752046FFF7AAFC761C2079DC
:101AE000B042E7D82068416901F480114161206863
:101AF00002F018FF800234D501204A4629E000BFD9
:101B000005EB4011D1F8001B00EBC00304EB83038D
:101B100093F85862012E1BD1002919DA94F8D46485
:101B200001F4803106F00106B14211D183F8572249
:101B3000A96941F08003AB616969090608D4D5F849
:101B4000040840F40070C5F8040805E00A30544F5A
:101B5000401C21798142D3D82068416901F40011E9
:101B60004161206802F0DEFE400007D52046FFF705
:101B700044FC2068416901F080414161206802F025
:101B8000D1FE40070AD520684568680702D520467F
:101B9000FFF74AFC2068416829434160BDE8FC9F8B
:101BA000D0F8E00401F05DBFD0F8E00401F06DBFB3
:101BB000F8B5040005D094F895042668002510B106
:101BC00006E00120F8BD84F89454204600F056F851
:101BD000032084F89504B6F1A04F00D1A5712068C8
:101BE00002F032FC207C8DF8000094E80F0002F037
:101BF0008BFA0226B8BB0021206802F0B6FE90BB2B
:101C0000002001270DE000BF00EBC00104EB8101C3
:101C10004F750875C8850D76CD610D62401CC0B248
:101C20004D6221798142EFD8002011E000EBC00124
:101C300004EB810181F8555281F8540281F8585221
:101C4000C1F85C52C1F86052401CC0B2C1F8645285
:101C500021798142EAD8207C8DF8000094E80F00B9
:101C600002F034FB10B184F89564AAE7657484F837
:101C70009574206802F01CFB0020F8BD10B586B0FA
:101C8000044614216846FEF728FC2068B0F1A04FF6
:101C90002FD119480021026842F001020260006859
:101CA00000F0010005904FF4C05000900220CDE9F3
:101CB0000101032003900A20049069460F48FFF7B2
:101CC000D7F90D48001D016841F0800101600A4804
:101CD0001430016841F4804101600068002200F482
:101CE0008040059011464320FFF72EFB4320FFF76D
:101CF0001DFB06B010BD000030380240000002405D
:101D000070B50446C079012570B1022801D0FEF7F4
:101D1000C4FD2946D4F8E00401F025FFD4F8E0041E
:101D2000BDE8704001F0DABE0025F2E7D0F8E0042B
:101D300001F002BFD0F8E00401F008BF10B504467E
:101D400090F8940401280AD0012084F89404617466
:101D5000206802F038FE002084F8940410BD0220B0
:101D600010BDD0F8E02400F29C41104601F007BFFE
:101D700010B50446006894F89414012909D0012193
:101D800084F89414C168490609D5617B012902D001
:101D900005E0022010BD816B41F480318163206831
:101DA00002F047FD206802F075FA002084F89404E0
:101DB00010BD000010B50446D0F8E00401F021FF8A
:101DC0002068D0F8001E41F00101C0F8001EE07A42
:101DD000002804D00248016841F00601016010BDEE
:101DE00010ED00E02DE9F0470E46050065D0DFF864
:101DF0001481D8F80000F7B200F00700B04207D213
:101E000088F80070D8F8000000F00700B04254D104
:101E100028683D4C810712D5400703D5206840F45F
:101E2000E05020602878000703D5206840F4604027
:101E300020602068A96820F0F0000843206028781E
:101E4000C0072DD0304968680839012812D002280F
:101E500013D0032811D00968890700292DDA2168D9
:101E600021F0030101432160FFF700FA814641F2AE
:101E7000883A0EE009688903EFE709688901ECE711
:101E8000FFF7F4F9A0EB0901514502D90320BDE8A1
:101E9000F0872068696800F00C00B0EB810FEFD18B
:101EA000D8F80010404601F00701B14207D9077089
:101EB000006800F00700B04201D00120E7E7287871
:101EC000400705D52068E96820F4E0500843206009
:101ED0002878000706D52068296920F4604040EA88
:101EE000C100206000F01EF82168084AC1F3031108
:101EF000515CC8400649086006480068FFF7DEF9F3
:101F00000020C4E7003C024008380240F2640008A8
:101F1000A0000020980000200148006870470000E1
:101F2000A0000020154810B5006810F00C021448FD
:101F300013D01449042A0FD0082A0ED10F4C241FA5
:101F40002268236802F03F025B0207D52068C0F3D5
:101F50008810A0FB010106E0084610BD2168C1F30E
:101F60008811A1FB00010023FEF7BAF92168C1F333
:101F70000141491C4900B0FBF1F010BD0838024096
:101F80000024F400001BB7002DE9F84F04006ED0C8
:101F90002078DFF84C93C007A9F104054AD009F175
:101FA00004000168C1F38101012908D00068C0F371
:101FB000810002280AD1D9F80000400206D528681D
:101FC000800337D560680028E1D033E06068B0F561
:101FD000803F10D0B0F5A02F286810D020F48030BA
:101FE0002860286820F4802028606068A8B1FFF786
:101FF0003DF906460DE0286840F48030F4E740F4EF
:1020000080202860F7E700BFFFF730F9801B6428C5
:1020100073D828688003F7D50CE0FFF727F9064648
:1020200005E000BFFFF722F9801B6428F0D828687C
:102030008003F7D42078DFF8AC8280074FF0000AE5
:102040003ED5A748001D016811F00C0F08D00068AC
:10205000C0F3810002280BD1D9F80000400207D458
:102060002868800716D5E068012800D112E033E126
:10207000E068B8B10120C8F80000FFF7F7F806469D
:1020800005E000BFFFF7F2F8801B0228C0D82868DF
:102090008007F7D52868216920F0F80040EAC100E0
:1020A00028600DE0C8F800A0FFF7E0F8064604E05D
:1020B000FFF7DCF8801B02281FD828688007F7D4B8
:1020C0002078000722D5864F87486169703771B143
:1020D00001210160FFF7CAF8064604E0FFF7C6F8E1
:1020E000801B022809D838688007F7D50EE0C0F8B1
:1020F00000A0FFF7BBF8064605E082E0FFF7B6F860
:10210000801B02287DD838688007F7D420784007E4
:1021100068D5DFF8CCB100270BF13C0BDBF80000F1
:10212000C0000BD4DBF8001041F08051CBF8001058
:10213000DBF80000012700F0805000906B4E306803
:10214000C00510D4306840F480703060FFF78EF81E
:10215000009005E0FFF78AF80099401A022850D84D
:102160003068C005F6D55E4EA0686C3601280FD0E9
:102170000528306810D020F001003060306820F071
:1021800004003060A068B8B1FFF770F800900FE06D
:10219000306840F00100F4E740F004003060F7E7F9
:1021A000FFF764F80099411A41F28830814266D8FD
:1021B00030688007F4D50EE0FFF758F8009007E08C
:1021C000FFF754F80099411A41F28830814256D8FD
:1021D00030688007F4D42FB1DBF8001021F0805173
:1021E000CBF80010A069C8B33D49091D0968C1F3C7
:1021F000810102294AD00228504607D0C8F8600061
:1022000000E03CE0FFF732F804463BE04746C8F800
:102210006000FFF72BF8064605E000BFFFF726F841
:10222000801B02282BD828688001F7D4D4E9070145
:102230000843A16A2E4A490802EB0141626A41EA59
:102240008211084394F82C1040EA0161C9F800108B
:1022500001203866FFF70AF8044606E03EE000BFBA
:10226000FFF704F8001B022809D828688001F7D579
:1022700034E000BFFEF7FAFF001B022802D903205A
:10228000BDE8F88F28688001F4D427E00128F7D052
:10229000D9F80000E26900F4800191421CD1226A61
:1022A00000F03F01914217D147F6C071626A0140C8
:1022B000B1EB821F10D1A26A4FF0FF3300F440311E
:1022C00003EB5202B1EB024F06D194F82C1000F050
:1022D0007060B0EB016F01D00120D1E70020CFE7A3
:1022E0000438024000004742800E47420070004020
:1022F0000000FFFF10B5401EB0F1807F01D3012028
:1023000010BD4FF0E02460610F21601702F00DFC5A
:102310000020A06107202061002010BD10B590F8BA
:102320003C20012A22D0012280F83C20CA688C6817
:1023300022F4407222434C6822F4806222430C68EB
:1023400022F4006222430C6922F4805222434C6939
:1023500022F400522243C969002322F480420A4336
:1023600001684A6480F83C30002010BD022010BD96
:1023700070B590F83C20012A32D0012480F83C400E
:10238000022280F83D2003685A689D6822F070069A
:102390000A6832435A60134B02689A4214D0B2F171
:1023A000804F11D0104B9A420ED0104B9A420BD056
:1023B0000F4B9A4208D00F4B9A4205D00E4B9A42CF
:1023C00002D00E4B9A4204D1496825F0800319438C
:1023D000916080F83D40002180F83C10084670BDB7
:1023E000022070BD000001400004004000080040D1
:1023F000000C004000040140004001400018004073
:1024000010B5040003D094F83D0010B107E001209E
:1024100010BD002084F83C00204600F01FF8022088
:1024200084F83D00211D206800F06AFC012084F83A
:10243000460084F83E0084F83F0084F8400084F8A9
:10244000410084F8420084F8430084F8440084F892
:10245000450084F83D00002010BD000010B586B096
:10246000044614216846FEF738F81349206888426C
:1024700020D112480021026842F001020260006887
:1024800000F0010005900D481438026842F0100277
:102490000260006800F0100005904FF4007000909A
:1024A0000220CDE901010120CDE90310694604486D
:1024B000FEF7DEFD06B010BD0000014044380240CA
:1024C0000010024090F83D10012901D00120704712
:1024D000022180F83D1000681149884214D0B0F103
:1024E000804F11D00F4988420ED00F4988420BD03F
:1024F0000E49884208D00E49884205D00D498842CD
:1025000002D00D49884204D1816801F007010629F3
:1025100003D0016841F00101016000207047000014
:10252000000001400004004000080040000C004092
:1025300000040140004001400018004070B504460E
:1025400090F83C000025012817D0012684F83C6053
:10255000022084F83D002068826822F0770222F48D
:102560007F4282600868502838D00DDC20284FD088
:1025700005DC90B3102811D14AE0022070BD30284C
:1025800046D040280AD13BE060282FD070280DD0DB
:10259000B0F5805F03D0B0F5005F12D0012584F85C
:1025A0003D60002084F83C00284670BDCB68D1E92E
:1025B0000121206800F01DFC2068816841F077014E
:1025C00009E0CB68D1E90121206800F012FC206805
:1025D000816841F480418160E1E719E0CA68496897
:1025E000206800F0DBFC5021206806E0CA684968DA
:1025F000206800F0E4FC6021206800F004FCCEE7D5
:10260000CA684968206800F0C9FC40212068F4E7E6
:10261000226801461046F0E710B586B00446142142
:102620006846FDF75AFF0E492068884216D10D48CA
:102630000021026842F010020260006800F0100001
:1026400005904FF4205000900220CDE901010120B7
:10265000CDE9031069460448FEF70AFD06B010BD37
:1026600000000140303802400010024070B50446BE
:1026700090F83C0000260D4601280FD0012084F878
:102680003C006AB1042A1DD0082A2FD00C2A3FD062
:102690000126002084F83C00304670BD022070BD49
:1026A000206800F0B9FB2068816941F00801816170
:1026B0002068816921F004018161206881692A69AB
:1026C000114311E0206800F0D7FB2068816941F4D4
:1026D000006181612068816921F4806181612068E5
:1026E00081692A6941EA02218161D2E7206800F00C
:1026F000F9FB2068C16941F00801C1612068C16926
:1027000021F00401C1612068C1692A69114311E007
:10271000206800F01BFC2068C16941F40061C161C0
:102720002068C16921F48061C1612068C1692A699A
:1027300041EA0221C161ACE710B5040003D094F86E
:102740003D0010B107E0012010BD002084F83C00DE
:10275000204600F01EF8022084F83D00211D20686C
:1027600000F0CEFA012084F8460084F83E0084F898
:102770003F0084F8400084F8410084F8420084F867
:10278000430084F8440084F8450084F83D000020AC
:1027900010BD704710B50446022249B104290ED07D
:1027A000082913D094F84100012816D0012010BD4B
:1027B00094F83E000128F9D184F83E200FE094F807
:1027C0003F000128F2D184F83F2008E094F840004F
:1027D0000128EBD184F8402001E084F84120012257
:1027E000206800F0F9FA16492068164A884201D09C
:1027F000904203D1436C43F4004343642068884211
:1028000013D0B0F1804F10D00F4988420DD00F493E
:1028100088420AD00E49884207D0904205D00D491F
:10282000884202D00C49884204D1816801F0070136
:10283000062903D0016841F001010160002010BDAC
:102840000000014000040140000400400008004076
:10285000000C00400040014000180040FEE700006E
:10286000F0B500230A24302537261F4611E000BFAB
:10287000B4EB107F02D905EB107C01E006EB107C75
:1028800001F813C001EB430C00015B1C8CF80170D4
:10289000DBB29342ECD3F0BD10B516488AB01449B0
:1028A000016006210024C0E90114C903C0E9034105
:1028B0004FF480114161047644768476C4760477BF
:1028C0004477FEF77CFA08B1FDF7E7FF0120019499
:1028D0000294CDE906400394089004940E200594D8
:1028E0000990009469460348FEF76AF80AB010BDE3
:1028F00000640040EC01002030B587B01421684628
:10290000FDF7EBFD23480024016841F0010101605F
:10291000016801F001010591016841F008010160C1
:10292000016801F008010591016841F480710160BE
:10293000016801F480710591016841F08001016036
:10294000016801F080010591016841F00401016016
:10295000016801F004010591016841F01001016076
:102960000068022500F010000590C0208DE83100BD
:1029700069460948FEF77CFB40200090CDE90154F0
:102980000320CDE9034069460448FEF771FB07B018
:1029900030BD0000303802400020024000080240F4
:1029A00010B596B000240F941094119412941394BF
:1029B0001C2168461494FDF790FD202107A8FDF71F
:1029C0008CFD2C482A490160A721C0E9011444F676
:1029D0001F61C0E9031444618461FFF711FD08B170
:1029E000FDF75BFF4FF480500F900FA92148FFF7D0
:1029F000A5FD08B1FDF751FF1E48FFF79DFE08B188
:102A0000FDF74BFF139413A91A481494FFF7B0FC79
:102A100008B1FDF742FF6020CDE900040294039461
:102A2000049405940422694612480694FFF71EFE9A
:102A300008B1FDF732FF082269460E48FFF716FE7F
:102A400008B1FDF72AFF0794089409944FF4005049
:102A50000A94CDE90B4007A906480E94FFF75EFCE7
:102A600008B1FDF71AFF0348FFF7D6FD16B010BDF9
:102A7000000001401402002010B500220F49104848
:102A800000F0D4FE08B1FDF708FF0E490C4801F034
:102A9000E4F808B1FDF701FF0B49094800F068FCB4
:102AA00008B1FDF7FAFE064801F05AF9002803D0F4
:102AB000BDE81040FDF7F1BE10BD00003000002061
:102AC0005C020020FC00002080000020FEE7FEE702
:102AD0000148FEF7B7BD0000580700202DE9F0417E
:102AE00003680D4604461E6C03EB4511D1F8080B34
:102AF00094F806E04FF400474FF0200C04F29C429B
:102B0000BEF1010F09D0DFF898E0764539D1020413
:102B100032D500BFC1F8087B3FE0224B5FEA007E60
:102B200004D59E4239D90004F4D436E05FEA806EC1
:102B300002D5C1F808CB30E010F0280F2DD19E420D
:102B400001D90004E6D405EBC50004EB8000D1F800
:102B5000101BD0F87432C1F31201591AC0F8681270
:102B600000F51570ADB903691BB1C2681144C160AD
:102B70000FE0012120680AE080060AD5C1F808CBE1
:102B800007E035B9D4F8640218B90021184601F0FD
:102B900061FCE9B22046FEF73DFC0020BDE8F08173
:102BA0000A31544F0A30544F2DE9F84F0E4601EBCD
:102BB000C60100EB810481460568D4E9091014348C
:102BC000884202D90120BDE8F88F081AA168814225
:102BD00000D20846C01C870805EB46181BE000BF62
:102BE000A0EB010AA068504500D282460AF103001A
:102BF000870899F8060000901FFA8AF3F2B2284677
:102C0000E16801F065FFE16801EB0A00E0606169DD
:102C100001EB0A006061D8F8180980B2B84205D308
:102C2000D4E90401814201D20028D9D1D4E90401B8
:102C3000884208D806F00F0101208840D5F83418E2
:102C40008143C5F834180020BDE77047704701780C
:102C5000407841EA00207047FEF70EBB30B593B0D4
:102C600030216846FDF739FC14210CA8FDF735FC2E
:102C70001D480025016841F080510160006800F0A6
:102C8000805011901948016841F48041016000684A
:102C9000022400F480401190012000900004019073
:102CA0008001CDE9064006200890A820CDE909045E
:102CB00007200B906846FFF767F908B172B6FEE788
:102CC0000CA90F2081E831004FF4A0500F904FF471
:102CD0008050109005210CA8FFF784F8002801D03F
:102CE00072B6FEE713B030BD4038024000700040BD
:102CF0000248016841F470010160704788ED00E00E
:102D0000F0B50268294C2A4D2A4E2B4F2B4B4FF021
:102D1000804CA04209D0604507D0A84205D0B042FF
:102D200003D0B84201D0984204D122F0700E4A6814
:102D300042EA0E02A0421BD0604519D0A84217D02B
:102D4000B04215D0B84213D0984211D01C4DA842C1
:102D50000ED01C4DA8420BD01B4DA84208D01B4DD5
:102D6000A84205D01A4DA84202D01A4DA84203D15C
:102D700022F44075CA682A434D6922F080022A4332
:102D800002608A68C2620A688262A04201D09842E8
:102D900001D109690163012141610169C90703D0BA
:102DA000016921F001010161F0BD00000000014056
:102DB0000004004000080040000C004000040140F6
:102DC000004001400044014000480140001800401C
:102DD000001C00400020004010B501F01F0301213D
:102DE000046A99408C430462016A9A40114301626B
:102DF00010BD10B5846842EA032224F47F440A43DC
:102E00002243826010BD826822F070020A4342F0C1
:102E10000701816070470000F0B5036A026A22F082
:102E20000102026242688469124E24F073050C6844
:102E30002C4323F002058B682B430D4DA84201D093
:102E4000B04205D123F00807CB683B4323F00403CD
:102E5000A84201D0B04205D14D6922F44072154319
:102E60008A692A4342608461496841630362F0BD14
:102E70000000014000040140F0B5026A036A23F03B
:102E800010030362436884690D6824F4E64444EA4D
:102E900005248D6822F0200242EA05120F4D104EE3
:102EA000A84201D0B04206D1CF6822F0800242EAA7
:102EB000071222F04002A84201D0B04207D14D696A
:102EC00023F4406343EA85038D6943EA8503436045
:102ED0008461496881630262F0BD00000000014026
:102EE00000040140F0B5026A036A23F480730362B0
:102EF0004368C46922F4007224F073050C68124E12
:102F00002C438D6842EA05220E4DA84201D0B04202
:102F100006D1CF6822F4006242EA072222F48062DE
:102F2000A84201D0B04207D14D6923F4405343EA8F
:102F300005138D6943EA05134360C4614968C163A1
:102F40000262F0BD000001400004014030B5046A97
:102F5000026A22F4805202624268C3690D6823F457
:102F6000E64343EA05238D6824F4005444EA05341B
:102F7000084DA84202D0084DA84204D14D6922F460
:102F8000804242EA85124260C3614968016404627A
:102F900030BD0000000001400004014010B5036A8C
:102FA000046A24F001040462846924F0F00444EA11
:102FB000021423F00A020A438461026210BD10B5B4
:102FC000036A046A24F010040462846923F0A003F5
:102FD00024F4704444EA023243EA0111826101623E
:102FE00010BD2DE9F0410C46D0F8D412D0F8C8221B
:102FF00000EB8101D1F8C01229B304F00F0606EBF3
:10300000860300EB83050027AB694BB106EBC606D0
:1030100002EB8602D269B3FBF2F602FB1632A2B1D2
:10302000C1F81472D0F8D42200EB8200D0F8C402A8
:1030300003692BB1D1F80802224601F504719847C3
:103040000020BDE8F0810320FBE700231A4621465B
:10305000AF6100F0E3FDF3E770B50546D0F8D402A8
:1030600005EB8000D0F8C04294B1284600F0B6FCD1
:10307000C4F80C02D5F8D412D4F8040205EB81018F
:10308000D1F8C412CA6804F503719047002070BDDE
:10309000032070BD70B5224D0446297800F0E2FB94
:1030A0002878002600F00F0000EB800004EB800081
:1030B00086846978204600F0D5FB687800F00F0020
:1030C00000EB800004EB8000A0F86461A978204642
:1030D00000F0C8FBA87800F00F0000EB800004EBC4
:1030E00080008684C684D4F8D40204EB8000D0F833
:1030F000C01299B1D0F8C40240688047D4F8D40215
:1031000004EB8000D0F8C00200F0ABFFD4F8D4028A
:1031100004EB8000C0F8C062C4F8BC62002070BD3F
:10312000A800002010B5D0F8D41200EB8100D0F830
:10313000C04284B1D0F8C41259B194F80002FF28FB
:1031400007D08B6894F8012221469847FF2084F825
:103150000002002010BD032010BD00000A210180E4
:1031600000487047AC00002070B5064682210C482C
:1031700000F0FBFA05460121094800F0F6FA044682
:103180008121074800F0F1FA0DB11021A971402109
:1031900004B1A18000B1818043203080004870BD1F
:1031A000B800002070B5064682210D4800F0DDFA17
:1031B000054601210A4800F0D8FA04468121084852
:1031C00000F0D3FA0DB11021A9714FF4007104B1D0
:1031D000A18000B1818043203080014870BD000093
:1031E000B800002070B5064682210C4800F0BDFAF8
:1031F00005460121094800F0B8FA04468121074834
:1032000000F0B3FA0DB11021A971402104B1A180E1
:1032100000B1818043203080004870BDB80000209C
:103220002DE9F04704464FF40775284600F01AFFD1
:1032300006004FF0000863D02946FDF74EF9D4F898
:10324000D4023C4D04EB80004FF01009C0F8C0627E
:10325000C4F8BC62207C4FF4007A0127F0B340230D
:1032600002222978204600F024FC2878402300F030
:103270000F0000EB800004EB800087840222697855
:10328000204600F016FC6878082300F00F0000EBE1
:10329000800004EB80000322A0F86471A978204626
:1032A00001F00F0101EB810104EB8101A1F82690EF
:1032B000A97800F0FEFBA87800F00F0000EB80007A
:1032C00004EB80008784C6F80482D4F8D402474611
:1032D00004EB8000D0F8C402006800E018E006F5B6
:1032E000017680473761776132687AB1207CF8B126
:1032F00040236978204600F0E8FB0020BDE8F08715
:10330000D4F8D41204EB8101C1F8C0820220F5E7A1
:10331000534602222978204600F0CBFB28785346FA
:1033200000F00F0000EB800004EB80008784A5E72D
:103330005346DEE7A800002010B5D0F8D41200EB09
:103340008101D1F8C01259B1027C084C002AD1F891
:10335000042207D04023617800F0B7FB002010BDA5
:10336000032010BD4FF40073F5E70000A800002013
:1033700039B1D0F8D42200EB8200C0F8C41200208A
:10338000704703207047D0F8D42200EB8200D0F8B9
:10339000C00218B1C0F80412002070470320704723
:1033A000D0F8D43200EB8300D0F8C00228B1C0F8C6
:1033B0001022C0F8081200207047032070472DE942
:1033C000FC410646D0F8D4020C4606EB80000021F2
:1033D000D0F8C0728DF80010ADF804100D4637B16A
:1033E000217811F060022FD0202A4BD102E0032077
:1033F000BDE8FC81E288F2B109060DD5D0F8C4021F
:1034000063783946D0F808C01846E047E288072AB2
:1034100000D9072239462DE0607887F80002E0885D
:10342000402800D34020C2B287F8012239463046F6
:1034300000F081F82BE0D0F8C4026378002286689F
:1034400021461846B04722E0607830B101281ED0EE
:103450000A2809D00B2815D110E096F89C02032801
:1034600010D1022201A905E096F89C02032809D197
:1034700001226946304600F078F808E096F89C0290
:10348000032804D02146304600F04AF80325284698
:10349000AEE7000010B5D0F8D41200EB8101D1F8EE
:1034A000C02201211AB1D2F8143213B116E0032060
:1034B00010BD0121C2F814120949D2F8103209785E
:1034C00001F00F0404EB840400EB8404A361D2F840
:1034D0001032D2F8082200F0A1FB0021084610BDEE
:1034E000A800002010B5D0F8B822002452689047F8
:1034F00000B10324204610BD002070470020704713
:10350000134610B50A46002100F0DFFA002010BD76
:10351000134610B50A46002100F080FB002010BDC4
:1035200010B50446802100F05AFB2046BDE810404B
:10353000002100F054BB10B50323C0F89432C0F84A
:1035400058211346C0F85C210A46002100F0BDFA5C
:10355000002010BD10B50521C0F8941200231A46B2
:10356000194600F0B2FA002010BD10B50223C0F8D1
:10357000943282611346C2610A46002100F04EFB7C
:10358000002010BD10B50421C0F8941200231A4683
:10359000194600F043FB002010BD000010B50A469C
:1035A000024903A000F00FF9004810BD3C0C0020B8
:1035B00043444320436F6E66696700001220088011
:1035C000004870475000002010B50A46024903A089
:1035D00000F0F9F8004810BD3C0C002043444320A3
:1035E000496E74657266616365000000042008809E
:1035F000004870474C00002010B50A46024903A05D
:1036000000F0E1F8004810BD3C0C002053544D6917
:1036100063726F656C656374726F6E6963730000CB
:1036200010B50A46024903A000F0CDF8004810BDCD
:103630003C0C002053544D3332205669727475612E
:103640006C20436F6D506F727400000010B51A202B
:1036500008800A480168001D0468001D00680818F9
:1036600009D008220649FFF7FBF80549042210316A
:103670002046FFF7F5F80248801E10BD107AFF1FA4
:1036800066000020F8B504460020ADF80000488828
:103690000D46010A08295FD2DFE801F05E04091730
:1036A0005E5E3C45D4F8B412207C0A6819E0207CA8
:1036B00002260028D4F8B80205D0C16A68468847B7
:1036C0000146467039E0816AF8E7C0B2062843D265
:1036D000DFE800F0030A1014181CD4F8B4024268A2
:1036E00005E0694690471CE0D4F8B402826892B3C2
:1036F000207CF6E7D4F8B402C268F8E7D4F8B40244
:103700000269F4E7D4F8B4024269F0E7D4F8B402ED
:103710008269ECE7207CF0B9D4F8B802416B6846C6
:103720008847014609E0207CA8B9D4F8B802016BAB
:1037300068468847014607204870EA888AB1BDF884
:10374000000040B1824200D90246ADF80020204678
:10375000FFF70BFFF8BDFFE729462046FFF7E0FE25
:10376000F8E72046FFF70EFFF4E778B50E464288EB
:103770000178002504468A4212D9ADF800100AE00B
:10378000694600F019F84178052904D18178054689
:10379000B14205D000256188BDF800209142EFD8E4
:1037A000284678BD0146002002E0401CC0B2491CFA
:1037B0000A78002AF9D170470A8803781A440A80E7
:1037C00001780844704770B516460D46002820D091
:1037D0000446FFF7E7FF022101EB40014FF40070C0
:1037E000814204D82046FFF7DDFF4000801C308076
:1037F00030782870032068700220002206E02954E7
:10380000401CC0B22A54401CC0B2641C217800295C
:10381000F5D170BD01004FF0000004D0012901D0A6
:10382000022901D0032070470120704778B100239E
:10383000C0F8B832C0F8C432C0F8D03209B1C0F80C
:10384000B412012180F89C12027000F0CBB8032062
:10385000704710B5D0F8C802FDF71EFEBDE8104055
:10386000FFF7D8BF10B5D0F8C802FDF7F0FDBDE8EE
:103870001040FFF7CFBF2DE9F04117460446002561
:1038800021B194F89C02032842D04CE0D4F8941261
:1038900004F11400022935D1D0E902639E4206D911
:1038A000F21A826039462046FFF732FE0FE0B3423B
:1038B00014D14068984211D3D4F8981288420DD29E
:1038C000002211462046FFF723FEC4F89852002339
:1038D0001A461946204600F0F8F813E094F89C02C6
:1038E000032808D1D4F8B802C16821B1C4F8D45271
:1038F000C168204688478021204600F070F92046A4
:10390000FFF728FE94F8A00268B184F8A0520AE0FC
:10391000D4F8B802426932B1C4F8D45242692046A0
:103920009047002800D10020BDE8F08170B5134613
:103930000446002221B194F89C02032830D03AE0DA
:10394000D4F8941204F5AA70032934D1D0E90251B5
:103950008D420AD96A1A82600846824200D3024622
:1039600019462046FFF7CCFD25E094F8AA0210F096
:103970001F0003D0012802D0022800D0002294F8B2
:103980009C02032808D1D4F8B802016921B1C4F817
:10399000D4220169204688472046FFF7F3FD0AE05C
:1039A000D4F8B802836933B1C4F8D42282692046BE
:1039B0009047002800D1002070BD0020704710B54E
:1039C0000024012180F89C12D0F8B82222B152685C
:1039D0000179904700B10324204610BDD0F8C802F9
:1039E000FDF787BD10B5017839BB15490222C1F832
:1039F000E004C0F8C8124FF0A0400860042008712D
:103A0000CA71002088714A728872C87208738873FC
:103A1000C8730846FEF7CCF808B1FCF73EFF8021DA
:103A20000748FDF7C4FC402200210548FDF7C3FC10
:103A3000802201210248FDF7BEFC002010BD0000DD
:103A4000580700200A0601F07F01D0F8C80201EBF8
:103A5000C10100EB810001D5807D704790F85602CE
:103A6000704710B5D0F8D42200EB8202D2F8B82209
:103A700022B190F89C32032B02D004E0032010BD49
:103A8000126A02B19047002010BD10B5D0F8D422C0
:103A900000EB8202D2F8B82222B190F89C32032BBC
:103AA00002D004E0032010BD526A02B1904700200A
:103AB00010BD10B51C461346D0F8C8022246FDF7CB
:103AC00021FDBDE81040FFF7A5BE10B5D0F8C80233
:103AD000FDF749FDBDE81040FFF79CBE2DE9F04120
:103AE00000260125044680F89C52C4F89462666062
:103AF000C4F8A46280F8A062D0F8B80230B142687D
:103B000022B100212046904700B103260022402325
:103B100011462046FFF7CDFF4027A4F864513B46ED
:103B2000002280212046C4F86071FFF7C2FFA584FF
:103B300030462762BDE8F08190F89C12042903D139
:103B400090F89D1280F89C120020704710B590F8F4
:103B50009C12032905D1D0F8B81211B1C96901B17D
:103B60008847002010BD01740020704710B5D0F8C0
:103B7000C802FEF7E3F8BDE81040FFF74BBE70B592
:103B8000044600F2AA20054600F051F80120C4F8CE
:103B90009402B4F8B002C4F8980294F8AA0210F0A3
:103BA0001F010AD001290ED0022912D000F0800195
:103BB0002046BDE8704000F012B829462046BDE816
:103BC000704000F0CFB829462046BDE8704000F0B4
:103BD0000FBA29462046BDE8704000F059B910B52B
:103BE000D0F8C802FDF7DBFCBDE81040FFF712BEBD
:103BF00010B5D0F8C802FEF7BBF8BDE81040FFF7DB
:103C000009BE90F89C12042903D090F89C1280F809
:103C10009D12042180F89C120020704710B5D0F846
:103C2000C802FDF7F5FCBDE81040FFF7F3BD70B525
:103C3000054611F8010B2870087868704C1C204666
:103C4000FFF705F86880A41C2046FFF700F8A8805D
:103C5000A01CFEF7FCFFE88070BD38B504460020CC
:103C6000ADF80000A1B1C4F8B812D4F8D40204EB46
:103C70008000D0F8B802C16A19B168468847C4F814
:103C8000D002D4F8D802401CC4F8D802002038BDB5
:103C9000032038BD02460020D2F8B832002B02D0F3
:103CA0001B681046184770472DE9F04188462B4E97
:103CB0008978002504463170012906D941462046FD
:103CC000FFF72EFC0320BDE8F08194F89C02022748
:103CD00002280CD003281DD041462046FFF720FCC7
:103CE00031782046FFF7FEFB03252846EBE789B332
:103CF00020466160FFF7CEFF050004D04146204614
:103D0000FFF70EFC1DE02046FFF73CFC032084F883
:103D10009C02EAE7C1B1606888421BD0C1B220466C
:103D2000FFF7E0FB317820466160FFF7B3FF050045
:103D300010D041462046FFF7F3FB21792046FFF7DC
:103D4000D1FB84F89C72D0E784F89C7220466160B5
:103D5000FFF7C8FB2046FFF715FCC6E7A4000020CC
:103D6000FFF746BF2DE9F0410A78002512F0600206
:103D70000CD0202A01D0402A7DD1D0F8D42200EBEB
:103D80008202D2F8B8229268904731E04B78002244
:103D900001260A2B6FD2DFE803F041666E586E08E9
:103DA000056E2D29FFF76EFC67E004468888D8B9B8
:103DB000C888C8B94888802816D200F07F0794F8D0
:103DC0009C02032810D084F89E7239462046FFF7E3
:103DD000CDFE2046FFF7D6FB1FB1022084F89C02DF
:103DE0004BE084F89C6248E0204644E0FFF75CFF2B
:103DF000054642E0CB88012B3DD190F89C32012B47
:103E000004D0022B02D0032B35D104E082600122C2
:103E100000F1080116E00122011D13E090F89C2238
:103E2000012A03D0022A01D0032A24D1CA88022AF7
:103E300021D1C660D0F8A41209B10321C1600222C9
:103E400000F10C01FFF791FB17E04A88012A02D02C
:103E5000022A03D00FE0C0F8A46216E08988090A9C
:103E600080F8A01211E090F89C32012B08D0022BB0
:103E700006D0032B04D0FFF753FB2846BDE8F081A2
:103E800049880129F9D1C0F8A422FFF77BFBF4E7A8
:103E90002DE9F041054608780C790E464FF00008F0
:103EA00010F060000BD0202801D040286AD12146B4
:103EB0002846FFF721FBFF2800D0D8B395E07078A3
:103EC000C8B3012824D003285CD195F89C020228AD
:103ED00002D0032856D10CE0002C53D0802C51D0B6
:103EE00021462846FFF77BFE80212846FFF777FE14
:103EF0007BE0708840B93CB1802C05D0C88818B9E7
:103F000021462846FFF76BFE2846FFF73BFB6CE097
:103F100095F89C020228DFD0032863D1708880BB0B
:103F2000600603D021462846FFF793FC2846FFF79A
:103F300029FBBCE700E00AE0C5F8D402D5F8B802D6
:103F40008268F2B131462846904780464DE095F8A8
:103F50009C020027022802D0032843D113E00CB1B1
:103F6000802C3FD1200604F07F0000EB800005EBA1
:103F7000800101D5143101E001F5AA7102220F6020
:103F80002CE032E02EE0200604F00F0000EB800071
:103F900005EB800009D5808C20B304F07F0000EB96
:103FA000800005EB800614360AE0B0F86401C8B161
:103FB00004F07F0000EB800005EB800606F5AA7692
:103FC0004CB1802C07D021462846FFF73BFD10B1AD
:103FD0000120306000E03760022231462846FFF7BA
:103FE000C4FA02E02846FFF79BFA4046BDE8F0819C
:103FF00070B50546087800240E4610F0600003D026
:10400000202801D0402827D195F89C02012803D010
:10401000022801D003281FD1B088C1B201291AD8C3
:10402000C1B22846FFF76AFAFF280CD058B9D5F874
:10403000B8128A683AB1C5F8D4028A68314628466F
:104040009047044600E00324F088204307D1284627
:10405000FFF798FA03E031462846FFF761FA204659
:1040600070BD7047004870473805002070B50A7869
:10407000012302F00F054E78AB401B4CD0F81C58C2
:10408000012E17D045EA0343C0F81C3800EB42105C
:10409000D0F8002B12040BD4D0F8002B0B8909792F
:1040A000C3F30A031A4344EA81410A43C0F8002BD0
:1040B000002070BD9BB21D43C0F81C5800EB42109D
:1040C000D0F800391B04F3D4D0F800390D890979F0
:1040D000C5F30A0589042B4341EA82510B4323436C
:1040E000C0F80039E4E7000000800010D0F80019A3
:1040F0006FF30A01C0F80019D0F8041841F4807178
:10410000C0F804180020704770B50D460446C2F38D
:10411000072104981E4601291BD0E06840F04000AA
:10412000E060204600F032F8C6F307210029A16BB9
:1041300026D021F48031A163C5F30741012907D1BD
:10414000A16841F00601A160A16841F02001A160D1
:1041500070BDA16B21F48031A163E1680A4A11406E
:10416000E160E16821F44011E160C0B2012803D1AF
:10417000E06840F48010E060204600F007F8DBE7DC
:1041800041F48031D7E70000BFFFBDFF08B5002133
:104190004FF070620091009B5B1C009393420CD81F
:1041A0000369002BF7DA0091016941F00101016117
:1041B0000099491C0091914201D9032008BD016971
:1041C000C907F5D1002008BD30B54C780A78012325
:1041D00000EB4212012C2CD0D2F8004B002C0BDA51
:1041E000D2F8004B44F00064C2F8004BD2F8004B08
:1041F00044F08044C2F8004BD0F83C580C7804F0EE
:104200000F0403FA04F425EA0444C0F83C48D0F84B
:104210001C48097801F00F018B4024EA0341C0F8E3
:104220001C18D2F8000B19490840C2F8000B0020F6
:1042300030BDD2F80049002C0BDAD2F8004944F026
:104240000064C2F80049D2F8004944F08044C2F842
:104250000049D0F83C480D7805F00F0503FA05F544
:10426000ADB2AC43C0F83C48D0F81C48097801F026
:104270000F018B4099B28C43C0F81C48D2F800095A
:1042800003490840C2F80009D1E700000078F3EFC5
:10429000007833ECD0F8001E21F00301C0F8001EB6
:1042A000D0F8041821F00201C0F80418002070476B
:1042B000D0F8001E21F00301C0F8001ED0F8041849
:1042C00041F00201C0F80418002070472DE9F04FBA
:1042D00000250E46044617462846294604EB800270
:1042E000C2F80411401C0F28F8D3C3F307405FEA5B
:1042F0000009204616D0806B20F40012A263A06B48
:1043000040F40022A263084688462146C4F8000E05
:10431000C7F30720012817D00846D1F8001841F04C
:10432000030118E0D0F8040840F00202C4F80428A1
:10433000A06B40F40012A263A06B20F40022A263E1
:10434000A06B20F48022DDE7300E0846D1F800187B
:1043500001D041F00101C0F80018102100F08BFAE3
:1043600000B10125204600F06AFA00B1012540465F
:10437000C4F81088C4F81488C4F81C8800214FF0D1
:10438000006B4FF0904E4FF67F3AF2B215E000BF4F
:1043900004EB4113D3F800C9BCF1000F06DA11B1E8
:1043A000C3F800E904E0C4F800B901E0C3F800096B
:1043B000C3F81009C3F808A9491C8A42E8D80021AB
:1043C00015E000BF04EB4113D3F800CBBCF1000FA4
:1043D00006DA11B1C3F800EB04E0C4F800BB01E059
:1043E000C3F8000BC3F8100BC3F808AB491C8A4292
:1043F000E8D8D4F8101821F48072C4F81028A0610D
:104400006FF080406061C6F3074018B9A06940F0C2
:104410001000A061A0690A490843A061C7F30740E2
:1044200018B1A06940F00800A061B9F1010F03D1F3
:10443000A06904490843A0612846BDE8F08F000048
:1044400000383C8004000040816821F00101816057
:104450000020704710B5036C134CA34203D9D0F869
:10446000003B002B1EDB0023C0F8103BD0F8103BB4
:1044700043F40023C0F8103BD0F8103B43F018037E
:10448000C0F8103BD0F8103B43F0C043C0F8103BDD
:10449000012907D1C0F8142BD0F8001B41F080216E
:1044A000C0F8001B002010BD0A30544F4A780B782A
:1044B000012A00EB43100BD0D0F8002B22F400129D
:1044C000C0F8002B0979032914D0022912D017E073
:1044D000D0F8002922F40012C0F800290979032934
:1044E00001D002290CD1D0F8001941F08051C0F858
:1044F000001905E0D0F8001B41F08051C0F8001B06
:10450000002070470A784B78D1B200EB4110012BA4
:1045100012D0D0F8001B002906DB2AB1D0F8001B0E
:1045200021F08041C0F8001BD0F8001B41F40011BD
:10453000C0F8001B00207047D0F80019002906DBE6
:104540002AB1D0F8001921F08041C0F80019D0F844
:10455000001941F40011C0F80019EBE7F8B50C7828
:104560004F788B4DE3B26FF0604600EB4313012FA1
:1045700029D0D3F8107B6FF31207C3F8107BD3F860
:10458000107B2F40C3F8107B002C7DD00D69002DCF
:104590007BD08C6825446D1EB5FBF4F5ADB26C4341
:1045A0000C62D3F8104B06EAC5452C43C3F8104BF8
:1045B000D3F8104B0D6AC5F312052C43C3F8104B0A
:1045C000012A70D0CBE00F69EFB1D3F810796FF307
:1045D0001207C3F81079D3F810792F40C3F8107977
:1045E0000CB30F698D682F447F1EB7FBF5F5D3F828
:1045F0001079ADB206EAC5463743C3F810790E7993
:10460000012E1CD02AE0D3F810692E40C3F810699F
:10461000D3F8105945F40025C3F81059D3F81059B0
:104620006FF3120520E00E698D68AE4200D90D616E
:10463000D0F8105945F40026C0F810690EE0D3F800
:10464000106926F0C046C3F81069D3F810694FF01E
:10465000C04707EA45752E43C3F81069D3F81059CF
:104660000E69C6F312063543C3F81059012A1BD050
:1046700000EB4413D3F8004944F00444C3F8004964
:104680000C79012C31D001E044E057E00A695AB3BB
:10469000D0F83428097801F00F03012199400A432A
:1046A000C0F8342871E056E0CA691AB100EB44132F
:1046B000C3F81429097901290ED1D0F80818C905C1
:1046C00000EB4411D1F8002902D442F0005201E07D
:1046D00042F08052C1F8002900EB4410D0F80019D4
:1046E00041F00441C0F800194FE0D0F80848E40553
:1046F000D3F8004902D444F0005401E044F080545F
:10470000C3F8004900920A8A93B20A78C96800F097
:10471000DFF93AE00C690CB18C680C618C680C62B2
:10472000D0F8105BC4F312042543C0F8105BD0F836
:10473000104B44F40024C0F8104B41E7D3F8104B61
:104740008D68C5F312052C43C3F8104BD3F8104BFA
:1047500044F4002432E7CA680AB1C3F8142B09797B
:1047600001290CD1D0F80808C005D3F8000B02D4F9
:1047700040F0005001E040F08050C3F8000BD3F847
:10478000000B40F00440C3F8000B0020F8BD00000F
:10479000FFFF07E038B50022009213464D780A78F3
:1047A00042F2107400EB4212012D19D0D2F8005BD6
:1047B000002D3CDAD2F8005B45F00065C2F8005BE2
:1047C0000A7800EB4212D2F8005B45F08045C2F84F
:1047D000005B009A521C0092A24221D9012326E0DC
:1047E000D2F80059002D22DAD2F8005945F00065C0
:1047F000C2F800590A7800EB4212D2F8005945F08D
:104800008045C2F80059009A521C0092A242E5D895
:104810000A7800EB4212D2F80029002AF3DB06E006
:104820000A7800EB4212D2F8002B002AD1DB18469E
:1048300038BD816841F0010181600020704708B5F2
:1048400000214FF070620091009B5B1C009393422B
:104850000AD80369002BF7DA009110210161009951
:10486000491C0091914201D9032008BD0169C90684
:10487000F5D4002008BD18B500224FF070630092F7
:10488000009C641C00949C420CD80469002CF7DA4C
:104890000092202242EA811101610099491C009195
:1048A000994201D9032018BD01698906F5D4002079
:1048B00018BDD0F8080810F0060004D0022803D074
:1048C000062801D00F20704702207047406900F091
:1048D00001007047D0F81818D0F81C08084080B2C2
:1048E0007047D0F81818D0F81C080840000C704722
:1048F00010B5D0F81038D0F8342801F00F0400EBD0
:104900004110E24002F00102D0F8080943EAC21265
:10491000104010BD00EB4111D1F8081BD0F814086D
:1049200008407047416980690840704730B50346C8
:104930000846940802F00301002203F5805303E0C7
:104940001D6840F8045B521CA242F9D300290BD029
:104950001C680022D50024FA05F3491E521C0904E4
:1049600000F8013B090CF5D130BD70B50446C068B4
:10497000002520F0C040E060012901D079B120E09D
:10498000E06840F00050E0600A20FCF75FFB6069DF
:104990000A3510F0010F10D1C82DF5D30DE0E068F5
:1049A00040F08040E0600A20FCF750FB60690A3567
:1049B00010F0010F01D0C82DF5D3C82D01D0002073
:1049C00070BD012070BDD0F8002822F4FE62C0F84E
:1049D0000028D0F800284FF4FE6303EA01110A43CF
:1049E000C0F8002800207047022A3ED1264A274BF3
:1049F0000A449A4201D20F2138E0254A254B0A4445
:104A00009A4201D20E2131E0234A244B0A449A42B1
:104A100001D20D212AE0224A224B0A449A4201D2B5
:104A20000C2123E0204A214B0A449A4201D20B2157
:104A30001CE01F4A1F4B0A449A4201D20A2115E08A
:104A40001D4A1E4B0A449A420FD31D4A1D4B0A446D
:104A50009A4201D2082109E01B4A11441B4A9142A3
:104A600001D2072102E0062100E00921C26822F4F8
:104A70007052C260C2684FF4705303EA81210A4346
:104A8000C260002070470000405327FF00350C0033
:104A9000401E1BFF40420F0000DC0BFF804F120046
:104AA000808CF9FE20D6130060B6E5FE60E31600A8
:104AB00000D3CEFE40771B00C05BB3FEC091210047
:104AC00000CA91FE20753800E05459FEE09C410078
:104AD00010B5029C74B9DB1C9C0800EB023000236B
:104AE00000F5805004E000BF51F8042B02605B1C0D
:104AF000A342F9D3002010BDFEE703B401984100A2
:104B0000009850EAC12018BF04204A0D18BF40F099
:104B1000010040F2FF72B2EB515F08BF40F00200AB
:104B2000012808BF052002B070470907090E0028B8
:104B300004DB00F1E02080F80014704700F00F0063
:104B400000F1E02080F8141D704700000000000014
:104B500010B5B94A2DED020B2DED0C8B82B00F99DB
:104B600021F000409FEDB6CB90422CDBA0F14053EA
:104B70000E9AA3F17F631A430FD0B349884202DC37
:104B800016D10E98A0B19DED0E0B02B0BDEC0C8BB2
:104B900002B0BDE8104000F0ACBC0029C1BF9FEDE1
:104BA000AC0B02B0BDEC0C8B02B0C8BF10BD16E060
:104BB0000120FBF7C1FC02B0BDEC0C8B02B0BDE8DC
:104BC000104000F0ADBCA44A9FEDA59B9FEDA6ABA5
:104BD00090425EDAA6499FEDA8CB814208DBB0EE99
:104BE0004C0AF0EE6C0A02B0BDEC0C8B02B010BDAA
:104BF0009DED0E0B53EC102B51EC100B01F03EF918
:104C000041EC180B9E480621B0EE480AF0EE680A07
:104C1000784400F0F2FB53EC182B51EC100B01F030
:104C20002DF941EC1B0B9748B0EE480AF0EE680AEC
:104C30000421784400F0E1FB53EC182B51EC100BED
:104C400001F01CF953EC192B00F0D0FE41EC100BD5
:104C500051EC1B0B53EC102B00F07CFF41EC100BC4
:104C600053EC102B9DED0E0B51EC100B01F006F9DF
:104C700053EC1A2B01F000FA9DED0E1B53EC112B97
:104C800001F0FAF953EC1C2B01F0F6F941EC100B92
:104C9000A9E79FED7D8B9FED7EBB9DED0E0B00295F
:104CA00053EC192B51EC100B52DA00F09FFE53EC31
:104CB000182B01F0E3F841EC180B77480621B0EE11
:104CC000480AF0EE680A784400F097FB53EC182B82
:104CD00051EC100B01F0D2F841EC1D0B6F48B0EE17
:104CE000480AF0EE680A0421784400F086FB53EC91
:104CF000182B51EC100B01F0C1F853EC192B00F0FC
:104D000075FE41EC190B51EC180B00F0F9FD41EC6C
:104D1000180B53EC192B51EC1D0B00F01BFF53EC3F
:104D2000182B01F0ABF853EC1A2B01F07DFA41EC93
:104D3000100B51EC180B53EC102B00F057FE53ECFA
:104D40001B2B01F09BF853EC1C2B01F095F96DE047
:104D500001F092F953EC182B01F090F841EC180B8C
:104D600000F0CEFD41EC1A0B00208DED00AB009061
:104D70009DED000B51EC1A0B53EC102B00F036FE9E
:104D80009DED000B41EC1C0B53EC102B51EC100B68
:104D900001F074F853EC182B01F06EF953EC1C2B56
:104DA00000F0D8FE41EC1C0B3D48B0EE480AF0EE96
:104DB000680A0621784400F020FB53EC182B51ECD4
:104DC000100B01F05BF841EC1D0B3648B0EE480AC1
:104DD000F0EE680A0421784400F00FFB53EC182B26
:104DE00051EC100B01F04AF853EC192B00F0FEFDCA
:104DF00041EC100B51EC1D0B53EC102B00F0AAFEF4
:104E000053EC1A2B01F03AF853EC1C2B00F0EEFD9A
:104E100041EC100B53EC102B9DED000B51EC100BE3
:104E200000F0E4FD53EC1B2B01F028F841EC100BD3
:104E3000D9E60000000000000000F03F0000000084
:104E4000182D4454FB2109400000F07F00000000B1
:104E500000000000000000000000E03F0000000033
:104E6000000000000000F03F075C143326A6913CD0
:104E70000000603C00000000182D4454FB21F93F65
:104E8000F418000002190000000000000000E03FDC
:104E900000000000000000403E1800004C18000018
:104EA000501700005E17000070B59B482DED020BF7
:104EB0002DED068B079D25F00044A04218DC974895
:104EC000844202DC0AD1069840B19DED060BBDEC90
:104ED000068B02B0BDE8704000F00BBB002DCCBFCC
:104EE0009FED8F0B9FED900BBDEC068B02B070BD5C
:104EF0008F48A04215DD8F48A042D8BF4FF0FF3445
:104F000058DD9DED060B51EC100BFFF7F6FD042864
:104F100008BF00F015FB9DED060BBDEC068B02B043
:104F200070BD9DED060B51EC100B00F031FBCDE98F
:104F3000060181489FED828BA0423CDD8248A04261
:104F40001FDD00249FED82AB9DED060B53EC1A2B69
:104F500051EC100B00F04AFD9DED060B41EC190BD6
:104F600053EC1A2B51EC100B00F088FF53EC182B6C
:104F700001F05AF953EC192B00F0ECFDCDE90601D4
:104F800049E09DED060B012453EC182B51EC100B5E
:104F900000F02CFD9DED060B41EC190B53EC182B8A
:104FA00051EC100B01F040F953EC192B00F0D2FD3D
:104FB000CDE906012FE06848A0421FDD02249FEDE5
:104FC000689B9DED060B53EC192B51EC100B00F078
:104FD00055FF53EC182B00F009FD9DED060B41EC3D
:104FE000180B53EC192B51EC100B01F01DF953EC7D
:104FF000182B00F0AFFDCDE906010CE09DED060B8E
:10500000032453EC102B9FED580B51EC100B00F0C8
:10501000A1FDCDE906019DED060B53EC102B51ECE3
:10502000100B00F02BFF41EC180B53EC182B00F089
:1050300025FF41EC190B4E480621B0EE490AF0EE6F
:10504000690A784400F0D9F953EC182B51EC100B95
:1050500000F014FF41EC180B4648B0EE490AF0EEA0
:10506000690A0521784400F0C8F953EC192B51EC7A
:10507000100B00F003FF41EC100B51EC180B53EC3C
:10508000102B002C0EDA00F0B1FC9DED061B53EC4A
:10509000112B00F0F3FE9DED061B53EC112B00F0DD
:1050A000EBFF35E000F0A2FC9DED061B53EC112B4D
:1050B00000F0E4FE41EC100B2F48784400EBC400F4
:1050C00090ED001B51EC100B53EC112B01F0ACF8E0
:1050D0009DED061B53EC112B01F0A6F841EC100BD3
:1050E0002648784400EBC40090ED001B51EC100BF7
:1050F00053EC112B00F0C0FF41EC100B002DA2BFB0
:10510000BDEC068B02B070BD51EC100B00F02FFC13
:1051100041EC100B01E70000000010440000F07F9C
:10512000182D4454FB21F93F182D4454FB21F9BF9D
:105130000000DC3F0000203E0000F33F00000000C4
:10514000000000000000F03F0000E63F000000000B
:10515000000000000000004000800340000000004C
:10516000000000000000F83F000000000000F0BF59
:105170007A15000030150000BA1400007214000007
:1051800070B56F4E2DED040B2DED048B82B0DDF864
:1051900024C0DDE907235C422CF000411C4341EAB6
:1051A000D474069D22F00040B44205D86C422C43D2
:1051B00040EAD474B4420BD99DED081B9DED060B5B
:1051C00002B0BDEC048B04B0BDE8704000F09BB9A8
:1051D000ACF14054A4F17F641C430BD0022404EAD8
:1051E000AC7444EAD27405439FED578B9FED582B66
:1051F00007D015E09DED060B51EC100B00F0B0F957
:1052000042E0002C11BF012C9DED060B02B0BDEC5D
:10521000048B04BF04B070BD022C38D0032C3BD0EB
:105220000B439FED4D1B9FED4E0B0AD0B14218D1A1
:10523000B04209D121F0804120F0804009910790CF
:105240000FE0002A15DA10E0474B7B44002C08BF22
:1052500093ED000B0DD0012C10D0022C17D0032C95
:105260001AD0B0421DD1002A03DAB0EE410AF0EEA6
:10527000610A02B0BDEC048B04B070BD93ED000B6D
:1052800051EC100B00F073FB41EC100BF1E7B0EEAA
:10529000480AF0EE680AECE7B0EE420AF0EE620A65
:1052A000E7E7401A00159FED329B3C28C8BF8DED03
:1052B000000B17DCBCF1000FBCBF10F13C0F8DEDF3
:1052C000009B0FDB9DED080B53EC102B9DED060BA7
:1052D00051EC100B00F03EFC00F05AF900F040F9E0
:1052E000CDE90001B4B1012C10D0022C9FED220BAE
:1052F00053EC102B9DED000B51EC100B19D000F06E
:1053000093FF53EC182B00F08FFFBDE7019880F05E
:10531000004001909DED000B53EC192B51EC100B4C
:1053200000F070FD04BF0220FBF706F99DED000BB5
:105330009FE700F079FF53EC182B00F09DFEA3E7E8
:105340000000F07F00000000182D4454FB210940AC
:10535000182D4454FB2109C0182D4454FB21F9BFDA
:10536000182D4454FB21F93FA21300000000000057
:105370000000000000000000075C143326A6A13CDA
:1053800000B52DED048BB0EE409AF0EE609A83B03C
:1053900051EC190B00F07CFE41EC180B18EE100AD2
:1053A00018EE901A8DED008B002818BF01200843DD
:1053B00020F00040C0F17F6000F1E040C00F14D049
:1053C00019EE101A19EE900A8DED009B002918BFF6
:1053D0000121084320F00040C0F17F6000F1E0406F
:1053E000C00F04BF0120FBF7A7F8B0EE480A03B0D6
:1053F000F0EE680ABDEC048B00BD70B504462DEDDF
:10540000028B4D1E00EBC500B0EE408AF0EE608AC4
:1054100090ED000B35F0060017D053EC182B51EC33
:10542000100B00F02BFD41EC100B6D1E04EBC500C2
:1054300090ED001B51EC100B53EC112B00F0D6FA41
:1054400041EC100B35F00600E7D1022D36D0042DCB
:105450001CD0062D1CBFBDEC028B70BD53EC182B6D
:1054600051EC100B00F00AFD94ED0A1B53EC112BCC
:1054700000F0BCFA53EC182B00F000FD94ED081B73
:1054800053EC112B00F0B2FA41EC100B53EC182B3B
:1054900051EC100B00F0F2FC94ED061B53EC112BB9
:1054A00000F0A4FA53EC182B00F0E8FC94ED040B88
:1054B00053EC102B00F09AFA41EC100B53EC182B24
:1054C00051EC100B00F0DAFC94ED021B53EC112BA5
:1054D00000F08CFA53EC182B00F0D0FC94ED001B7C
:1054E00053EC112B00F082FABDEC028B41EC100B57
:1054F00070BD10B553EC102B51EC100B00F076FA88
:1055000041EC100B10BD10B553EC112B51EC100BEE
:1055100000F06CFA41EC100B10BD00000000000020
:105520009FED050B10B553EC102B51EC100B00F058
:1055300011FB41EC100B10BD00000000000000004A
:105540009FED050B10B553EC102B51EC100B00F038
:1055500095FC41EC100B10BD000000000000001095
:1055600010B541EC100BFFF79FFC51EC100B10BD78
:1055700010B500231A4602E0845C521C23448A4280
:10558000FAD30248807A1844C0B210BD000000204F
:1055900082B0CDE9000121F0004001909DED000BAB
:1055A00002B051EC100B70472DED028B82B0FBF76F
:1055B0006BFE9FED9C8AB0EE482AF0EE481A9FEDF4
:1055C0009A1ADFED9A0AB7EE000A994800F07EF9C0
:1055D000B0EE482AF0EE481A9FED961ADFED960AD3
:1055E0009348B3EE040A343800F070F9934E552016
:1055F000307011207070FF20F070FDF72FFBFDF769
:105600007BF9FDF749F9FDF7CBF9FDF735FA8C4841
:10561000FCF758FF04218A48FDF7BCF808218848A8
:10562000FDF7B8F88748FBF7DDFC02218548FBF75A
:105630004DF940F6B830FBF709FDDFF8F491824FE1
:10564000A6F11C040025B0464FF4487B4FF4C87AFD
:1056500009F16C09012640213846FBF701FED8B359
:1056600026706570A078C0B3FBF700FE6169401A30
:10567000B0F5FA7F55D8E07800282CD0E570FAF71D
:10568000F5FD4FF4B47190FBF1F201FB120001B291
:105690000091FAF7EBFDFA2190FBF1F201FB120009
:1056A000009900B200EE101AF8EEC00A9FED670AEA
:1056B00020EE800ABDEEC00A10EE101A00EE100AAD
:1056C000E180B8EEC00ADFED620A20EE200ABDEEEE
:1056D000C00A84ED040A56E000E01DE025704FF496
:1056E0007A60E0802561A570E670607848B1FBF7CC
:1056F000BDFD6169401A584545D94FF4803020619D
:1057000041E0FBF7B3FD60614D4866704FF47A717C
:1057100002689163594617E0FBF7A8FD6061A67027
:1057200031E0FBF7A3FD6169401A40F2DC51884289
:1057300029D9FBF79BFD6169401A40F6C4118842E4
:1057400005D83F4840F214510068C1631BE0FBF7E5
:105750008DFD6169401A40F6E441884205D8384819
:1057600040F26C71006881630DE0FBF77FFD6169B9
:10577000401A41F20401884204D831490968C1F84D
:105780003CB000E02561B9F90000B4F906C0A0EB17
:105790000C0202F1C80353450FD912B2002A01DDF1
:1057A000012300E00023C3EBD27202EBC20303EB40
:1057B000021200EBC202A28101E0A4F80CC0B9F908
:1057C000021000EE101AB8EEC01A00EE100AB4F97A
:1057D0000C00F8EEC00A00EE100A1548B8EEC00A38
:1057E000343800F037F8BDEEC00A10EE100A00B2EF
:1057F000FBF756F8C82211460120236900F06AF829
:1058000080213846FBF72CFD48B188F8026004215E
:105810000A48FAF7FFFF0A20FBF718FC1BE788F895
:105820000250F4E700803B4500000000ACC527377C
:1058300068010020000048430AD7A33C1C00002058
:1058400014020020EC010020002002408805B6412F
:105850008988884300B5F0EE412A014600F00DF832
:1058600091ED0C0AF0EE620A01F1340000F005F847
:1058700091ED190A81ED1A0A00BD80ED050AC0ED0F
:10588000060A90ED071A30EE600A80ED081A80EDE6
:10589000070AD0ED000A60EE801AC0ED091AD0EDBB
:1058A0000A0A90ED012A42EE000A30EE410AC0EDEC
:1058B0000A0A90ED021A71EEA00A20EE010A80EDAC
:1058C0000B0A30EE800A80ED0C0A704780EC050A66
:1058D0007047000030B4094C60810848F52420303E
:1058E00004700C0A44708170C270190C0171190A9D
:1058F0004171837130BC0821FAF7A2BF000000207B
:1059000000B52DED048B83B041EC190B00F0C0FB0A
:1059100041EC180B18EE100A18EE901A8DED008B62
:10592000002818BF0120084320F00040C0F17F602C
:1059300000F1E040C00F14D019EE101A19EE900AD1
:105940008DED009B002918BF0121084320F0004085
:10595000C0F17F6000F1E040C00F04BF0120FAF702
:10596000EBFD51EC180B03B0BDEC048B00BD81F0D6
:105970000041704780F00040704721F000417047BF
:1059800020F000407047000021F00042A2F1605278
:10599000B2F5801F01F0004328BFD2F17F6C0BD914
:1059A0005FEA001C43EAC20242EB507018BF704726
:1059B00028BF20F001007047B2F5801FBCBF184619
:1059C00070474FEA410C1CF5001F02D2084600F058
:1059D0008BBD70B500F0FCFA00000089FFF7F6BF40
:1059E0004FF00040A0F580007047000010B591EA2C
:1059F000030F48BF83F0004300F11E84841A71EB4B
:105A0000030C05D2121943EB0C03001B61EB0C01D4
:105A1000DFF824E14FEA1154A4EB135C1EEA430FB4
:105A200018BF9EEA445F73D023EA0E03DCF1200E18
:105A300021EA045143F4801332D322FA0CFE10EB16
:105A40000E0023FA0CFE41EB0E01CCF1200E03FAFE
:105A50000EFE10EB0E0051F10001B1F5801FCCF1EC
:105A6000200E32D201EB045112FA0EF2BDE81040C2
:105A700058BF7047401C38BF5FEA420218BF7047EA
:105A8000002814BF20F0010041F100014FEA41035A
:105A900013F5001F38BF7047A1F1C04100F0E6BA0E
:105AA000012A43EB0302ACF1200CDCF11F0E32BFE4
:105AB0004FF0000E23FA0CF310EB030041EB0451FE
:105AC000B4EB115FD0D0A1EB045101F5801149086E
:105AD0005FEA300001EB04510ED350F1000038BFF3
